:020000040800F2
:100000007008002061020008ED050008B90300082F
:10001000E9050008B10300084D0A000800000000CF
:10002000000000000000000000000000F5050008CE
:10003000B503000800000000F1050008F9050008FC
:100040007B0200087B0200087B0200087B0200089C
:100050007B0200087B0200087B0200087B0200088C
:100060007B0200087B0200087B0200087B0200087C
:100070007B0200087B0200087B0200087B0200086C
:100080007B0200087B0200087B02000800000000E1
:100090000000000000000000000000007B020008DB
:1000A0007B0200087B0200087B0200087B0200083C
:1000B0007B0200087B0200087B0200087B0200082C
:1000C0007B0200087B0200087B0200087B0200081C
:1000D0007B0200087B02000869070008000000009E
:1000E0007B0200087B0200087B0200080000000081
:1000F0000000000000000000000000007B0200087B
:10010000000000007B0200087B0200087B02000860
:1001100000000000000000000000000000000000DF
:100120007B0200087B0200087B0200087B020008BB
:100130007B0200080000000000000000000000003A
:100140000000000000000000000000007B0200082A
:100150007B0200087B0200087B0200087B0200088B
:100160007B0200087B020008000000000000000085
:10017000000000000000000000000000000000007F
:10018000000000007B0200080000000000000000EA
:100190007B02000800F002F800F052F814A696E87E
:1001A000000CB244B344DA4501D100F049F8BAE892
:1001B0000F000FA696E83000A5EB040504EB060738
:1001C000AAEB0704A7F101074FEA15154FEA34140B
:1001D000A4F10104AC4201D300F032F813F0010F96
:1001E00018BFFB1A43F0010300F001F8DBE71847E2
:1001F0006409000084090000103A24BF78C878C15F
:10020000FAD8520724BF30C830C144BF04680C601C
:1002100070470000704700000023002400250026DE
:10022000103A28BF78C1FBD8520728BF30C148BF59
:100230000B6070471FB500F048FC1FBD10B510BD26
:1002400000F07CF81146FFF7F5FF00F001FC00F02C
:100250009AF803B4FFF7F2FF03BC00F0A1F8000026
:100260000948804709480047FEE7FEE7FEE7FEE74A
:10027000FEE7FEE7FEE7FEE7FEE7FEE70448054986
:10028000054A064B70470000550700089501000815
:10029000700200207008002070040020700400200C
:1002A00040EA010310B59B070FD1042A0DD310C8F3
:1002B00008C9121F9C42F8D020BA19BA884201D945
:1002C000012010BD4FF0FF3010BD1AB1D30703D08D
:1002D000521C07E0002010BD10F8013B11F8014B43
:1002E0001B1B07D110F8013B11F8014B1B1B01D15F
:1002F000921EF1D1184610BD10B5431C02E010F853
:10030000011B71B18107FAD14FF0013202C88C1A7A
:100310008C4314EAC211F9D0C01A0A0603D0C01ED9
:1003200010BDC01A10BD0A0401D0801E10BD090204
:10033000FCD0401E10BD704770477047754600F0F6
:100340002BF8AE4605006946534620F00700854667
:1003500018B020B5FFF792FFBDE820404FF000062F
:100360004FF000074FF000084FF0000BAC46ACE830
:10037000C009ACE8C009ACE8C009ACE8C00921F08C
:1003800007018D46704710B50446AFF30080204644
:10039000BDE81040FFF75DBF00487047080000202F
:1003A00001491820ABBEFEE726000200704700009E
:1003B000FEE7000070470000FEE7000011F5803FF7
:1003C0001AD146F20041C4F20201884268D046F2D6
:1003D0000001C4F20201884240F0C48043F61000DC
:1003E000C4F20200016841F400110160016821F4C7
:1003F000001101600020704710B540F6E422C0F6FD
:100400000002525C46F2000E1358C4F2020E23F0B2
:1004100001037045135008BF00294FD00EF5806CC2
:10042000604508BF00294DD0704508BF01294DD057
:10043000604508BF01294DD0704508BF02294DD045
:10044000604508BF02294DD0704508BF03294DD033
:10045000604508BF03294DD0704508BF04294DD021
:10046000604508BF04294DD0704508BF05294DD00F
:10047000604508BF05294DD0704508BF06294DD0FD
:10048000604508BF06294DD080EA0E0C81F00704B4
:100490000EF5976354EA0C0408BF0EF1B80343E06D
:1004A00043F61000C4F20200016841F480010160CB
:1004B000016821F480010160002070470EF11003F3
:1004C00032E000BF0EF582632EE000BF0EF128037C
:1004D0002AE000BF0EF5856326E000BF0EF1400361
:1004E00022E000BF0EF588631EE000BF0EF1580346
:1004F0001AE000BF0EF58B6316E000BF0EF170032B
:1005000012E000BF0EF58E630EE000BF0EF188030F
:100510000AE000BF0EF5916306E000BF0EF1A003F4
:1005200002E000BF0EF5946300241C605C609C60D8
:10053000DC601C6121245C61835823F0606383507C
:10054000BDE8104081B1013906290BD8DFE801F080
:100550000420161C10262C004FF4746181600020CA
:10056000704700BF012070473F2181600020704725
:100570004FF47461C1600020704700BF4FF0746198
:1005800081600020704700BF3F21C160002070479C
:100590004FF47C1181600020704700BF4FF47C1144
:1005A000C1600020704700BF4FF07461C16000203F
:1005B0007047000044F6D351C1F26201A0FB010173
:1005C0004FF0FF3000EB91104EF21001CEF200011F
:1005D00048600020886005200860704740F20001F4
:1005E000C2F2000108607047FEE70000FEE700006D
:1005F000704700007047000070470000B0B543F638
:100600000005C4F20205D5F80004022161F30200DE
:10061000C5F80004D5F8000400F00700022811D046
:10062000D5F8000400F0070002280BD0D5F800042C
:1006300000F00700022805D0D5F8000400F00700FC
:100640000228E7D147F20400C4F2000050F8041C6D
:10065000022262F38F3140F8041C2968102262F3F1
:10066000C7012960296841F00101296029688907CB
:1006700009D4296889075CBF29685FEA817102D4BF
:1006800029688907F2D5696848F20002CFF6BF727F
:10069000114045F21042114369606968012262F31A
:1006A00011416960296841F08071296029688901D8
:1006B0000AD4296889015CBF29685FEA811103D4E3
:1006C00029688901F2D500BF0168490409D401688D
:1006D00049045CBF01685FEA414102D401684904F2
:1006E000F2D5A868042120F0F000A860A86861F3A2
:1006F0008C20A860A868022120F46040A860A86847
:1007000061F30100A86000BFA86800F00C00082891
:100710000ED0A86800F00C00082809D0A86800F0E6
:100720000C00082804D0A86800F00C000828EBD1C1
:100730004BF60054C0F201542046FFF73BFF204621
:10074000FFF74CFFD5F88C0020F08070C5F88C00C6
:10075000B0BD00004EF68850CEF20000016841F4B2
:10076000700101607047000044F20040C4F20000D4
:100770000168C90658BF704781B0016800910099AF
:1007800040680090009801B0AFF300802DE9F04779
:1007900046F28C00C4F20200006840F26C2CC2F2F7
:1007A000000C80B2DCF800A0C0F58079D14508BF0C
:1007B000BDE8F087A9EB0A0198BF01F580711FFA27
:1007C00081FE40F26800BEF1000FC2F200003ED090
:1007D00001F0030840F26911BEF1040FC2F20001FA
:1007E00002D2002519E000BFAEEB0806002500BFCD
:1007F0000AEB0507BB1CFCB2DBB20C5DCB5C4219FB
:1008000044557C1C9370FB1CE4B2DBB20C5DCB5CEA
:100810000435AE425470D370EAD1B8F1000F16D04F
:1008200005EB0A06F6B28E5DB8F1010F46550ED003
:100830006E1C06EB0A07FFB2CF5DB8F1020F8755B9
:1008400005D0AC1C04EB0A03DBB2C95C01550021E6
:1008500000F80E1040F64931C0F600010822CCF82D
:100860000090FFF71DFD98B340F2680040F640315C
:10087000C2F20000C0F600010922FFF711FDB8B373
:1008800040F2680040F63131C2F20000C0F60001CB
:100890000822FFF705FDD8B340F2680040F63A3170
:1008A000C2F20000C0F600010622FFF7F9FC014683
:1008B00040F6F72040F6EC22C0F60000C0F6000239
:1008C000002908BF1046BDE8F04700F029B800BF76
:1008D00040F61800C4F202004FF40051016040F6E7
:1008E0001730C0F60000BDE8F04700F019B800BFAF
:1008F00040F61800C4F202004FF00051016040F6CB
:100900000930C0F60000BDE8F04700F009B800BFAC
:1009100040F62430C0F60000BDE8F047AFF3008099
:100920002DE9F04381B040F26818C2F2000898F84F
:100930000010012902D100BFFEE700BF46F2A00669
:1009400044F200474FF00109C4F20206C4F2000766
:1009500088F800900446FFF7CFFC054607F50730FE
:100960000621FFF72BFD3068042161F35B603060E6
:10097000306869F387103060306840F48060306020
:10098000306820F400703060306820F4C04030607F
:10099000306820F4C0503060306820F490703060CF
:1009A000381DB060F4607068C5EA0000706030689F
:1009B00040F00100306044F21440C4F2000000BF77
:1009C00050E8001F41F0800140E80012D2B150E829
:1009D000001F41F0800140E800129AB150E8001F6A
:1009E00041F0800140E8001262B150E8001F41F080
:1009F000800140E80012002AE2D103E056F89C0C86
:100A000080020CD456F89C0C800208D456F89C0C3A
:100A100080025CBF56F89C0C5FEA8020EED54FF454
:100A2000001046F8940C3868400609D4386840062F
:100A30005CBF38685FEA406002D438684006F2D58F
:100A4000002088F8000001B0BDE8F083FEE7000058
:100A500082B043F64000C4F2020041684FF6FF0244
:100A600041F48041416041684FF0FF3301F480411F
:100A700000910099016841F080510160006800F028
:100A80008050019001984EF60C50CEF200000168A3
:100A9000114040F20032C0F2FA5211430160016885
:100AA000C1F3022181F00702042A28BF042203397E
:100AB00003FA02F238BF0021D24302FA01F1090120
:100AC000C175FFF79BFD00BFFEE7F1EE100A4FF680
:100AD000FF71C0F2C03120EA010040F04070E1EE49
:100AE000100A7047102840587088A0B854454D50DF
:100AF0002032332E340A004552523A20554E4B4E86
:100B00004F574E20434D440A004F4B3A204C45442A
:100B100031204F46460A004F4B3A204C4544312085
:100B20004F4E0A004F4B3A2046414E205345540A3F
:100B30000046414E20534554200054454D503F003F
:100B40004C454431204F4646004C454431204F4EE1
:100B500000000000780B00080000002008000000E2
:100B6000F8010008800B0008080000206808000059
:100B700018020008000000000024F400000000003B
:040000050800019559
:00000001FF
