:020000040800F2
:100000008006002061020008690600081D0400083F
:10001000650600081D030008F9090008000000003B
:10002000000000000000000000000000ED060008D5
:100030002103000800000000E9060008F10600089E
:100040007B0200087B0200087B0200087B0200089C
:100050007B0200087B020008250300087B020008E1
:100060007B0200087B0200087B0200087B0200087C
:100070007B0200087B0200087B0200087B0200086C
:100080007B0200087B0200087B02000800000000E1
:100090000000000000000000000000007B020008DB
:1000A0007B0200087B0200087B0200087B0200083C
:1000B000C10800087B0200087B0200087B020008E0
:1000C0007B0200087B0200087B0200087B0200081C
:1000D0007B0200087B0200087B0200080000000091
:1000E0007B0200087B0200087B0200080000000081
:1000F0000000000000000000000000007B0200087B
:10010000000000007B0200087B0200087B02000860
:1001100000000000000000000000000000000000DF
:100120007B0200087B0200087B0200087B020008BB
:100130007B0200080000000000000000000000003A
:100140000000000000000000000000007B0200082A
:100150007B0200087B0200087B0200087B0200088B
:100160007B0200087B020008000000000000000085
:10017000000000000000000000000000000000007F
:10018000000000007B0200080000000000000000EA
:100190007B02000800F002F800F052F814A696E87E
:1001A000000CB244B344DA4501D100F049F8BAE892
:1001B0000F000FA696E83000A5EB040504EB060738
:1001C000AAEB0704A7F101074FEA15154FEA34140B
:1001D000A4F10104AC4201D300F032F813F0010F96
:1001E00018BFFB1A43F0010300F001F8DBE71847E2
:1001F000B8080000D8080000103A24BF78C878C1B9
:10020000FAD8520724BF30C830C144BF04680C601C
:1002100070470000704700000023002400250026DE
:10022000103A28BF78C1FBD8520728BF30C148BF59
:100230000B6070471FB500F02AFC1FBD10B510BD44
:1002400000F031F81146FFF7F5FF00F0D7FB00F0A2
:100250004FF803B4FFF7F2FF03BC00F057F80000BB
:100260000948804709480047FEE7FEE7FEE7FEE74A
:10027000FEE7FEE7FEE7FEE7FEE7FEE70448054986
:10028000054A064B704700004D080008950100081C
:1002900080000020800600208002002080020020D4
:1002A000704770477047754600F02CF8AE46050061
:1002B0006946534620F00700854618B020B5FFF781
:1002C000DDFFBDE820404FF000064FF000074FF083
:1002D00000084FF0000BAC46ACE8C009ACE8C00920
:1002E000ACE8C009ACE8C00921F007018D467047B1
:1002F00010B50446AFF300802046BDE81040FFF77C
:10030000A8BF0000004870470800002001491820DD
:10031000ABBEFEE72600020070470000FEE70000CB
:100320007047000043F61440C4F201000168C90799
:1003300008BF70470121016040F26800C2F200006E
:10034000027A0170012A08BF00F090B970470000DE
:10035000B0B586B043F63000C4F20200016840F642
:10036000000441F0040101600068012100F0040074
:10037000009000980020C4F20204059001910391BE
:100380004FF400550490029169462046009500F014
:10039000DDF8A56106B0B0BD80B586B043F630008B
:1003A000C4F20200016841F00201016000681021FE
:1003B00000F00200009000980220059001900020BB
:1003C000039004900120029040F200400091C4F29A
:1003D0000200694600F0BAF806B080BD80B586B06C
:1003E00043F63000C4F20200016841F001010160EF
:1003F0000068694600F00100009000980020059018
:100400000390019001200090049002900020C4F21B
:10041000020000F09BF806B080BD0000FEE700007F
:1004200080B584B043F64400C4F20200016841F490
:1004300080410160006800F480400390039801202F
:10044000C0F20200019001200090684600F016F80A
:1004500043F60040C4F20100016841F0010101606F
:100460004EF20640CEF20000002101704EF2001064
:10047000CEF200004021016004B080BD80B5027959
:1004800001689AB1E9B1437943F6004C022BC4F2FA
:10049000010C1DD0012B17D0002B3FD1DCF804201C
:1004A00063468A43CCF8042018E000BF43F60040BE
:1004B000C4F2010002688A430260426822EA010134
:1004C0004160002080BD00BFDCF800208A4302E0CC
:1004D000DCF800200A43634643F8042B1A684FF007
:1004E000000E0A431A608279032A1CD80FF20A0010
:1004F00000EB82037046DFE802F00305191D00BF20
:10050000E0E700BFDCF80C208A43CCF80C20DCF8D4
:1005100008201143CCF8081080BD00BF4FF0010E39
:100520008279032AE2D9012080BD00BFDCF80820CF
:100530008A4302E0DCF808200A43CCF80820DCF803
:100540000C201143CCF80C1080BD00002DE9F04FB9
:100550000E6896FAA6F2B2FA82F236FA02F363D085
:100560004FF001084FF0030C0CE000BFD1E900632D
:100570000768AB4007EA0A073B430360013236FADB
:1005800002F351D008FA02F316EA0304F6D0D1F8C8
:1005900004E0AEF10103022B94FAA4F31AD2B3FAE9
:1005A00083F6D0F808907500D1E902AB0CFA05F398
:1005B00029EA03090AFA05F747EA09078760476845
:1005C0006FEA030A27EA04090BFB04F747EA090765
:1005D000476006E0B3FA83F675000CFA05F36FEA9C
:1005E000030A0F69C368AF4003EA0A033B43BEF145
:1005F000020FC360BAD1E3B2240AD1F814E094FA2E
:10060000A4F4002B08BFB4FA84F64FF0200308BF0F
:100610002423C458B6000F27B740BC430EFA06F790
:100620002743C750A2E700BF0020BDE8F08F0000BD
:1006300044F6D351C1F26201A0FB01014FF0FF303B
:1006400000EB91104EF21001CEF200014860002044
:10065000886005200860704740F20001C2F2000186
:1006600008607047FEE70000FEE7000040F23440FB
:10067000C4F20000016864238AB213FA81F1B2F572
:10068000617F88BF002101607047000040F278025E
:10069000C2F200025088013081B20629508038BF72
:1006A000704740F234400021C4F2000051800168DC
:1006B00089B2B1F57A7F07D3012313704FF0FF326F
:1006C00011440160704700BF41B11278012A07D17F
:1006D0004FF0FF3211440160704700BF00231370D8
:1006E000012211440160704770470000704700000C
:1006F00070470000B0B543F60005C4F20205D5F816
:100700000004022161F30200C5F80004D5F80004DA
:1007100000F00700022811D0D5F8000400F007000F
:1007200002280BD0D5F8000400F00700022805D0FD
:10073000D5F8000400F007000228E7D147F20400D2
:10074000C4F2000050F8041C022262F38F3140F81A
:10075000041C2968102262F3C7012960296841F04E
:10076000010129602968890709D4296889075CBFC4
:1007700029685FEA817102D429688907F2D569681E
:1007800048F20002CFF6BF72114045F21042114309
:1007900069606968012262F311416960296841F06A
:1007A00080712960296889010AD4296889015CBFA0
:1007B00029685FEA811103D429688901F2D500BF55
:1007C0000168490409D4016849045CBF01685FEA13
:1007D000414102D401684904F2D5A868042120F0FF
:1007E000F000A860A86861F38C20A860A8680221C6
:1007F00020F46040A860A86861F30100A86000BF11
:10080000A86800F00C0008280ED0A86800F00C00C2
:10081000082809D0A86800F00C00082804D0A868AF
:1008200000F00C000828EBD14BF60054C0F2015444
:100830002046FFF7FDFE2046FFF70EFFD5F88C009F
:1008400020F08070C5F88C00B0BD00004EF68850D6
:10085000CEF20000016841F47001016070470000B1
:1008600081B043F64000C4F20200016841F001018A
:1008700001600068532100F00100009000980C20F6
:10088000C4F20000C16140F2E73101624FF08041E3
:100890000A6822F002020A60026842F00102026065
:1008A000086840F0010008604EF20010CEF200002F
:1008B000102180F81C134FF08051016001B0704787
:1008C0001020C4F200000168C90708BF70476FF02C
:1008D0000101016040F26800C2F2000001790329C1
:1008E0004DD8DFE801F0033F0D2500BF0178012955
:1008F00045D10021012201700271C1603FE000BFBB
:100900000178012902BF0021017001711021C4F298
:1009100002010968C9071EBF002101700171C16889
:100920000131B1F5FA6FC16084BF0321017126E086
:100930001021C4F202010968C90720D0037A40F6E9
:1009400018010022C4F202010270027183F0010258
:10095000002B027214BF4FF400524FF000520A6095
:100960000DE000BF0178012902BF00210170017173
:10097000C16801311529C16024BF02210171007ACB
:10098000002808BFFFF782BE7047000081B043F621
:100990004000C4F20200016841F0020101600068F9
:1009A000532100F002000090009840F20040C4F291
:1009B0000000816240F2E731C162816941F060016B
:1009C00021F013018161C8214163816941F008016F
:1009D0008161016A41F001010162016841F0800119
:1009E0000160016841F001010160416941F00101CC
:1009F000416101B070470000FEE7000082B043F69D
:100A00004000C4F2020041684FF6FF0241F4804109
:100A1000416041684FF0FF3301F48041009100993B
:100A2000016841F080510160006800F08050019041
:100A300001984EF60C50CEF200000168114040F2D1
:100A40000032C0F2FA52114301600168C1F3022181
:100A500081F00702042A28BF0422033903FA02F2B4
:100A600038BF0021D24302FA01F10901C175FFF735
:100A700041FEFFF791FCFFF76BFCFFF7AFFCFFF7C0
:100A8000CFFCFFF783FFFFF7EBFE00BFFEE7F1EEC1
:100A9000100A4FF6FF71C0F2C03120EA010040F0A9
:100AA0004070E1EE100A7047C80A000800000020FC
:100AB00008000000F8010008D00A00080800002023
:100AC00078060000180200080024F400000000006E
:040000050800019559
:00000001FF
