:020000040800F2
:100000006806002061020008A90600088D030008A8
:10001000A50600081D030008B9070008000000003D
:10002000000000000000000000000000B106000811
:100030002103000800000000AD060008B506000816
:100040007B0200087B0200087B0200087B0200089C
:100050007B0200087B0200087B0200087B0200088C
:100060007B0200087B0200087B0200087B0200087C
:100070007B0200087B0200087B0200087B0200086C
:100080007B0200087B0200087B02000800000000E1
:100090000000000000000000000000007B020008DB
:1000A0007B0200087B0200087B0200087B0200083C
:1000B0007B0200087B0200087B0200087B0200082C
:1000C0007B0200087B0200087B0200087B0200081C
:1000D0007B0200087B0200087B0200080000000091
:1000E0007B0200087B0200087B0200080000000081
:1000F0000000000000000000000000007B0200087B
:10010000000000007B0200087B0200087B02000860
:1001100000000000000000000000000000000000DF
:100120007B0200087B0200087B0200087B020008BB
:100130007B0200080000000000000000000000003A
:100140000000000000000000000000007B0200082A
:100150007B0200087B0200087B0200087B0200088B
:100160007B0200087B020008000000000000000085
:10017000000000000000000000000000000000007F
:10018000000000007B0200080000000000000000EA
:100190007B02000800F002F800F052F814A696E87E
:1001A000000CB244B344DA4501D100F049F8BAE892
:1001B0000F000FA696E83000A5EB040504EB060738
:1001C000AAEB0704A7F101074FEA15154FEA34140B
:1001D000A4F10104AC4201D300F032F813F0010F96
:1001E00018BFFB1A43F0010300F001F8DBE71847E2
:1001F0005007000070070000103A24BF78C878C18B
:10020000FAD8520724BF30C830C144BF04680C601C
:1002100070470000704700000023002400250026DE
:10022000103A28BF78C1FBD8520728BF30C148BF59
:100230000B6070471FB500F06AFB1FBD10B510BD05
:1002400000F031F81146FFF7F5FF00F0B7FA00F0C3
:100250004FF803B4FFF7F2FF03BC00F057F80000BB
:100260000948804709480047FEE7FEE7FEE7FEE74A
:10027000FEE7FEE7FEE7FEE7FEE7FEE70448054986
:10028000054A064B70470000A507000895010008C5
:100290006800002068060020680200206802002034
:1002A000704770477047754600F02CF8AE46050061
:1002B0006946534620F00700854618B020B5FFF781
:1002C000DDFFBDE820404FF000064FF000074FF083
:1002D00000084FF0000BAC46ACE8C009ACE8C00920
:1002E000ACE8C009ACE8C00921F007018D467047B1
:1002F00010B50446AFF300802046BDE81040FFF77C
:10030000A8BF0000004870470800002001491820DD
:10031000ABBEFEE72600020070470000FEE70000CB
:10032000704700002DE9F04186B043F63000C4F27A
:100330000200016840F2004441F0020101600068DF
:10034000C4F2020400F002000090009840206D46C4
:100350004FF0040802270126009020462946CDF8D8
:100360001480019703960496029700F04BF88020C2
:10037000009020462946CDF81480019703960496F4
:10038000029700F03FF806B0BDE8F081FEE70000FC
:1003900010B588B043F64000C4F20200016845F28F
:1003A000004441F4001101600068C4F2000400F44C
:1003B0000010009000982068694620F0010020603D
:1003C000206840F400402060206820F40040206055
:1003D00000200090CDE90400CDE9020048F2A060C1
:1003E000C0F2010001904FF4804007904FF480600C
:1003F0000690204600F06EF8206840F00100206072
:1004000008B010BD2DE9F04F0C6894FAA4F2B2FACE
:1004100082F234FA02F35AD04FF001084FF0030C85
:100420000DE000BF4B6807686FEA09063740AB4034
:100430003B4303600C68013234FA02F347D008FAF8
:1004400002F31C40F6D0D1F804E0AEF10103012B19
:1004500094FAA4F314D8B3FA83F7D0F808907F0085
:10046000D1E9025B0CFA07FA29EA0A09BD4045EA1C
:100470000905856045680BFB04F7A5433D434560CE
:10048000B3FA83F30E69C7685D000CFA05F927EA31
:100490000907AE403E43BEF1020FC660C2D1E7B2CB
:1004A000260A96FAA6F6002F08BFB6FA86F34FF092
:1004B000200708BF2427D1F814E0C4599B000F2659
:1004C0009E40B4430EFA03F32343C351AAE700202E
:1004D000BDE8F08FF0B585B0044600680D4620F009
:1004E0000100206001A800F081F8D5E9011CD5E9E0
:1004F0000323606A1A4320F01F0010436062DDF896
:100500000CE04DF68360C4F21B30AEFB0003606864
:100510009A0C4FF49676724348F6381620F03F0056
:10052000C0F2410640EA9340A2FB0626606048F212
:10053000A062206AC0F20102571C20F03F00B942BD
:1005400038BF9E0C731C1843914220620FD91920AA
:10055000BCF1000F08BF03204843BEFBF0F00105CB
:1005600008BF012040EA0C0040F4004007E04800CA
:10057000BEFBF0F040F6FC71084208BF0420E169C0
:100580004CF6FF7291430843E06105F114032868BB
:100590000ECBA76848F2FF36B74319433943A16031
:1005A000216821F01A0108432060206840F0010012
:1005B0002060206820F4806040EA02010020216071
:1005C00005B0F0BD44F6D351C1F26201A0FB0101B8
:1005D0004FF0FF3000EB91104EF21001CEF200010F
:1005E00048600020886005200860704780B543F6A9
:1005F000040EC4F2020EDEF8042002F00C0342F2F4
:100600000042082BC0F2F40206D0042B22D147F698
:100610004002C0F27D121DE0DEF80030DEF800C0BE
:100620005B0247F64003C0F27D1358BF13460CF03F
:100630003F0CDEF80020B3FBFCFCDEF80030C2F318
:10064000881202FB0CFCC3F30143022202EB4302BB
:10065000BCFBF2F20260DEF8043040F62811C3F36E
:100660000313C0F60001C95C40F6381322FA01F109
:100670004160DEF80420C0F60003C2F382229A5CD7
:1006800021FA02F28260DEF80420C2F342329A5C60
:10069000D140C16080BD000040F20001C2F2000103
:1006A00008607047FEE70000FEE7000070470000AA
:1006B0007047000070470000B0B543F60805C4F26B
:1006C0000205D5F8F803022161F30200C5F8F8032A
:1006D000D5F8F80300F007000228F9D147F200002E
:1006E000C4F200000168022262F38F31016055F804
:1006F000081C102262F3C70145F8081C55F8081CB5
:1007000041F0010145F8081C55F8081C8907FBD584
:1007100055F8041C48F20002CFF6BF72114045F2B2
:100720001042114345F8041C55F8041C012262F3E1
:10073000114145F8041C55F8081C41F0807145F83A
:10074000081C00BF55F8081C8901FBD54168490405
:10075000FCD52868042120F0F0002860286861F3A7
:100760008C2028602868022120F4604028602868D6
:1007700061F30100286000BF286800F00C00082821
:10078000FAD14BF60054C0F201542046FFF71AFF8D
:100790002046FFF781FFD5F8840020F08070C5F86F
:1007A0008400B0BD4EF68850CEF20000016841F4DE
:1007B0007001016070470000FEE7000082B043F660
:1007C0004000C4F2020041684FF6FF0241F480414C
:1007D000416041684FF0FF3301F48041019101997C
:1007E000016845F2144441F0805101600068C4F290
:1007F000000400F08050019001984EF60C50CEF2AB
:1008000000000168114040F20032C0F2FA52114378
:1008100001600168C1F3022181F00702042A28BFA8
:100820000422033903FA02F238BF0021D24302FA4C
:1008300001F10901C175FFF73FFFFFF773FDFFF7F6
:10084000A7FD00BF60688007FCD454F8140C40F486
:10085000807044F8140C00BF2068C007FCD054F826
:10086000040C462161F3070044F8040C206880075B
:10087000FCD520680190019860680190019800BF44
:1008800020680006FCD554F8040C012161F3070030
:1008900044F8040C20684007FCD554F8140C40F4CC
:1008A000007044F8140C00BF60688007FCD454F852
:1008B000140C40F4807044F8140C00BF2068C0078A
:1008C000FCD054F8040C462161F3070044F8040CF2
:1008D00020688007FCD5206801900198606801902D
:1008E000019800BF20680006FCD554F8040C1021C4
:1008F00061F3070044F8040C20684007FCD554F865
:10090000140C40F4007044F8140C00BFFEE7F1EE44
:10091000100A4FF6FF71C0F2C03120EA010040F02A
:100920004070E1EE100A7047000000000000000077
:100930000102030406070809000000000102030485
:10094000600900080000002008000000F80100080D
:10095000680900080800002060060000180200086E
:080960000024F4000000000077
:040000050800019559
:00000001FF
