:020000040800F2
:10000000680600206102000861030008250300085B
:100010005D0300081D0300087104000800000000D3
:10002000000000000000000000000000690300085C
:100030002103000800000000650300086D030008AC
:100040007B0200087B0200087B0200087B0200089C
:100050007B0200087B0200087B0200087B0200088C
:100060007B0200087B0200087B0200087B0200087C
:100070007B0200087B0200087B0200087B0200086C
:100080007B0200087B0200087B02000800000000E1
:100090000000000000000000000000007B020008DB
:1000A0007B0200087B0200087B0200087B0200083C
:1000B0007B0200087B0200087B0200087B0200082C
:1000C0007B0200087B0200087B0200087B0200081C
:1000D0007B0200087B0200087B0200080000000091
:1000E0007B0200087B0200087B0200080000000081
:1000F0000000000000000000000000007B0200087B
:10010000000000007B0200087B0200087B02000860
:1001100000000000000000000000000000000000DF
:100120007B0200087B0200087B0200087B020008BB
:100130007B0200080000000000000000000000003A
:100140000000000000000000000000007B0200082A
:100150007B0200087B0200087B0200087B0200088B
:100160007B0200087B020008000000000000000085
:10017000000000000000000000000000000000007F
:10018000000000007B0200080000000000000000EA
:100190007B02000800F002F800F052F814A696E87E
:1001A000000CB244B344DA4501D100F049F8BAE892
:1001B0000F000FA696E83000A5EB040504EB060738
:1001C000AAEB0704A7F101074FEA15154FEA34140B
:1001D000A4F10104AC4201D300F032F813F0010F96
:1001E00018BFFB1A43F0010300F001F8DBE71847E2
:1001F0001803000038030000103A24BF78C878C103
:10020000FAD8520724BF30C830C144BF04680C601C
:1002100070470000704700000023002400250026DE
:10022000103A28BF78C1FBD8520728BF30C148BF59
:100230000B6070471FB500F05AF91FBD10B510BD17
:1002400000F031F81146FFF7F5FF00F013F900F068
:100250004FF803B4FFF7F2FF03BC00F057F80000BB
:100260000948804709480047FEE7FEE7FEE7FEE74A
:10027000FEE7FEE7FEE7FEE7FEE7FEE70448054986
:10028000054A064B704700005D0400089501000810
:100290006800002068060020680200206802002034
:1002A000704770477047754600F02CF8AE46050061
:1002B0006946534620F00700854618B020B5FFF781
:1002C000DDFFBDE820404FF000064FF000074FF083
:1002D00000084FF0000BAC46ACE8C009ACE8C00920
:1002E000ACE8C009ACE8C00921F007018D467047B1
:1002F00010B50446AFF300802046BDE81040FFF77C
:10030000A8BF0000004870470800002001491820DD
:10031000ABBEFEE72600020070470000FEE70000CB
:1003200070470000FEE7000044F6D351C1F26201BD
:10033000A0FB01014FF0FF3000EB91104EF21001D5
:10034000CEF20001486000208860052008607047F8
:1003500040F20001C2F2000108607047FEE70000B1
:10036000FEE7000070470000704700007047000083
:10037000B0B543F60805C4F20205D5F8F80302212A
:1003800061F30200C5F8F803D5F8F80300F00700A0
:100390000228F9D147F20000C4F2000001680222ED
:1003A00062F38F31016055F8081C102262F3C70117
:1003B00045F8081C55F8081C41F0010145F8081CD7
:1003C00055F8081C8907FBD555F8041C48F20002B3
:1003D000CFF6BF72114045F21042114345F8041C9C
:1003E00055F8041C012262F3114145F8041C55F82C
:1003F000081C41F0807145F8081C00BF55F8081C26
:100400008901FBD541684904FCD52868042120F006
:10041000F0002860286861F38C2028602868022199
:1004200020F460402860286861F30100286000BF64
:10043000286800F00C000828FAD14BF60054C0F2EE
:1004400001542046FFF770FF2046FFF781FFD5F8E3
:10045000840020F08070C5F88400B0BD4EF688504E
:10046000CEF20000016841F47001016070470000A5
:10047000FEE7000082B043F64000C4F2020041688B
:100480004FF6FF0241F48041416041684FF0FF3375
:1004900001F4804100910099016841F080510160B0
:1004A000006800F08050019001984EF60C50CEF29A
:1004B00000000168114040F20032C0F2FA521143CC
:1004C00001600168C1F3022181F00702042A28BFFC
:1004D0000422033903FA02F238BF0021D24302FAA0
:1004E00001F10901C175FFF743FF00BFFEE7F1EE1F
:1004F000100A4FF6FF71C0F2C03120EA010040F04F
:100500004070E1EE100A7047280500080000002046
:1005100008000000F801000830050008080000206D
:1005200060060000180200080024F400000000002B
:040000050800019559
:00000001FF
