:020000040800F2
:100000009008002061020008990D0008D10700083F
:10001000950D0008BD050008C91300080000000088
:10002000000000000000000000000000A10D00081A
:10003000F9060008000000009D0D0008A50D00084D
:100040007B0200087B0200087B0200087B0200089C
:100050007B0200087B0200087B0200087B0200088C
:100060007B0200087B0200087B0200087B0200087C
:100070007B0200087B0200087B0200087B0200086C
:100080007B020008C10500087B0200080000000098
:100090000000000000000000000000007B020008DB
:1000A0007B0200087B0200087B0200087B0200083C
:1000B0007B0200087B0200087B0200087B0200082C
:1000C0007B0200087B0200087B0200087B0200081C
:1000D0007B0200087B020008A90E00080000000057
:1000E0007B0200087B0200087B0200080000000081
:1000F0000000000000000000000000007B0200087B
:10010000000000007B0200087B0200087B02000860
:1001100000000000000000000000000000000000DF
:100120007B0200087B0200087B0200087B020008BB
:100130007B0200080000000000000000000000003A
:100140000000000000000000000000007B0200082A
:100150007B0200087B0200087B0200087B0200088B
:100160007B0200087B020008000000000000000085
:10017000000000000000000000000000000000007F
:10018000000000007B0200080000000000000000EA
:100190007B02000800F002F800F052F814A696E87E
:1001A000000CB244B344DA4501D100F049F8BAE892
:1001B0000F000FA696E83000A5EB040504EB060738
:1001C000AAEB0704A7F101074FEA15154FEA34140B
:1001D000A4F10104AC4201D300F032F813F0010F96
:1001E00018BFFB1A43F0010300F001F8DBE71847E2
:1001F0000413000024130000103A24BF78C878C10B
:10020000FAD8520724BF30C830C144BF04680C601C
:1002100070470000704700000023002400250026DE
:10022000103A28BF78C1FBD8520728BF30C148BF59
:100230000B6070471FB501F010F91FBD10B510BD60
:1002400000F0EFF81146FFF7F5FF01F0BFF800F0FE
:100250000DF903B4FFF7F2FF03BC00F015F900003D
:100260000948804709480047FEE7FEE7FEE7FEE74A
:10027000FEE7FEE7FEE7FEE7FEE7FEE70448054986
:10028000054A064B70470000950E000895010008CE
:10029000900200209008002090040020900400208C
:1002A00053EA020C00F069802DE9F04B4FF0000694
:1002B000002B1FBFB3FA83F503FA05F424FA05F601
:1002C0005E4012BF1643B2FA82F502FA05F4C5F198
:1002D00020051EBF22FA05FC44EA0C04203556EA2C
:1002E000044C4FEA144418BF641C4FF000084FF050
:1002F0000009904271EB030C39D3002919BFB1FA00
:1003000081F701FA07F6B0FA80F700FA07F6C7F1AD
:1003100020071EBF20FA07FC46EA0C062037B6FB72
:10032000F4FCA7EB0507103F07F01F0BCBF12006ED
:100330002CFA06F60CFA0BFB44BFB3460026202F1E
:10034000A4BF5E464FF0000B5BEA060C08BF4FF0FF
:10035000010B19EB0B0948EB0608ABFB027C06FB13
:1003600002CC0BFB03CCC01B71EB0C01C1E70B46AD
:10037000024641464846BDE8F08B13B5084318BF16
:100380004FF0FF300146AFF30080BDE81C407047DE
:1003900010B5431C02E010F8011B71B18107FAD1BE
:1003A0004FF0013202C88C1A8C4314EAC211F9D002
:1003B000C01A0A0603D0C01E10BDC01A10BD0A0420
:1003C00001D0801E10BD0902FCD0401E10BD4FF0B0
:1003D000000200B5134694469646203922BFA0E895
:1003E0000C50A0E80C50B1F12001BFF4F7AF0907A1
:1003F00028BFA0E80C5048BF0CC05DF804EB890092
:1004000028BF40F8042B08BF704748BF20F8022BD4
:1004100011F0804F18BF00F8012B704770477047EC
:100420007047754600F02CF8AE4605006946534605
:1004300020F00700854618B020B5FFF71FFFBDE884
:1004400020404FF000064FF000074FF000084FF03B
:10045000000BAC46ACE8C009ACE8C009ACE8C00988
:10046000ACE8C00921F007018D46704710B504467D
:10047000AFF300802046BDE81040FFF7EABE000061
:10048000004870470800002001491820ABBEFEE775
:10049000260002007047000080B54620012100F0D0
:1004A000DBF930B346F2A000C4F20200016821F08B
:1004B000010101600168C907FCD141F2B541C0F6F4
:1004C0000001C1604168192262F30F0141600168B7
:1004D00041F00101016044F21440C4F2000000BF89
:1004E00050E8001F41F0800140E80012002AF7D1D7
:1004F0005EE00A2000F03AFC4620072100F0ACF94B
:1005000038B346F2A000C4F20200016821F00101F4
:10051000016000BF0168C907FCD141F29441C0F6F7
:100520000001C1604168202262F30F01416001684F
:1005300041F00101016044F21440C4F2000000BF28
:1005400050E8001F41F0800140E80012002AF7D176
:100550002EE00A2000F00AFC4620102100F07CF971
:1005600038B346F2A000C4F20200016821F0010194
:10057000016000BF0168C907FCD141F2CF41C0F65C
:100580000001C1604168222262F30F0141600168ED
:1005900041F00101016044F21440C4F2000000BFC8
:1005A00050E8001F41F0800140E80012002AF7D116
:1005B00080BDC820BDE8804000F0D8BBFEE7000049
:1005C00046F2A000C4F2020050F89C1C890258BFF9
:1005D00070474FF4001140F8941C016821F00101AC
:1005E000016044F21440C4F2000000BF50E8001F54
:1005F00021F0800140E80012002AF7D17047000086
:100600002DE9F04790B043F63000C4F202000168D3
:1006100001AC41F40011016000683C2100F40010BD
:10062000019001982046FFF7D2FE46F200054020D7
:1006300044F20448C4F202054FF00069039000261A
:100640004FF4806AC4F20008284606212246CDF8FD
:1006500028900896CDF818A00496CDF80480079647
:1006600005960B9600F05CF9D5F8A0004FF4003722
:1006700040F01000C5F8A0004EF20010CEF20000CD
:10068000076020463C21FFF7A2FE40F26C10C2F248
:10069000000002904FF480700990CDE904062846CE
:1006A00005212246CDF8289003960896CDF818A08B
:1006B000CDF8048007960B9700F032F9D5F8880042
:1006C00040F00100C5F8880044F21440C4F2000074
:1006D00050E8001F41F0400140E80012002AF7D125
:1006E00050E8001F41F0800140E80012002AF7D1D5
:1006F00010B0BDE8F0870000704700002DE9F0431E
:1007000087B043F63000C4F20200016840F20044B2
:1007100041F0020101600068C4F2020400F002002E
:1007200001900198402001AD4FF000084FF00409FE
:1007300002260127019020462946CDF81480CDF8E5
:10074000189002960497039600F032F904A80296D6
:1007500080E880038020019020462946039600F01F
:1007600027F907B0BDE8F0832DE9F04186B043F6E4
:100770003000C4F202000168002441F00101016070
:100780000068C4F2020400F0010000900098042008
:100790006D4600264FF007080227009020462946A4
:1007A000CDE90366CDF814800197029700F000F9B7
:1007B0000820009001200490204629460396CDF899
:1007C00014800197029700F0F3F806B0BDE8F081BD
:1007D000FEE7000010B588B043F64000C4F2020006
:1007E000016845F2004441F4001101600068C4F260
:1007F000000400F40010009000982068694620F082
:1008000001002060206840F400402060206820F44F
:100810000040206000200090CDE90400CDE90200F6
:1008200048F2A060C0F2010001904FF480400790B0
:100830004FF480600690204600F022F9606A20F0B4
:1008400010006062606A20F00F006062206840F073
:100850000100206008B010BD80B581B04FF2C02CFF
:10086000CFF6FC7C45F2144EC4F2000E634600BF86
:10087000DEF80420920704D50133F9D3012001B03A
:1008800080BD5EF8142C634642F480724EF8142C3E
:10089000DEF80020D20704D10133F9D3022001B0E1
:1008A00080BD5EF8042C22F0FF0210444EF8040CC8
:1008B000604600BFDEF80020920704D40130F9D36F
:1008C000032001B080BDDEF8000000900098DEF843
:1008D0000400009000986046DEF80020120604D460
:1008E0000130F9D3042001B080BD5EF8040C20F083
:1008F000FF0008444EF8040CDEF80000400705D461
:100900001CF1010CF8D3052001B080BD5EF8140C79
:1009100040F400704EF8140C002001B080BD0000BF
:1009200070B5D2E902C3D2E904E443EA0C03D2E988
:10093000065643EA0E0323432B4341F28C45C0F68F
:1009400000053343966A695C33430E5848F21F052D
:10095000CFF6FC752E4033430B50D36A014493B15C
:100960004869D2E90C6520F0070030431843946BC6
:100970004861086820F0C07028430860086820F4C7
:10098000C00020430860D2E90003D2E90826CB600A
:10099000886048684FF6FF739843104348600868C2
:1009A00020F0606040EA060200200A6070BD00008E
:1009B0002DE9F04F0C6894FAA4F2B2FA82F234FAFC
:1009C00002F35AD04FF001084FF0030C0DE000BFC6
:1009D0004B6807686FEA09063740AB403B4303604A
:1009E0000C68013234FA02F347D008FA02F31C40D3
:1009F000F6D0D1F804E0AEF10103012B94FAA4F390
:100A000014D8B3FA83F7D0F808907F00D1E9025BDD
:100A10000CFA07FA29EA0A09BD4045EA090585608A
:100A200045680BFB04F7A5433D434560B3FA83F3E8
:100A30000E69C7685D000CFA05F927EA0907AE40A0
:100A40003E43BEF1020FC660C2D1E7B2260A96FA53
:100A5000A6F6002F08BFB6FA86F34FF0200708BFAE
:100A60002427D1F814E0C4599B000F269E40B443BC
:100A70000EFA03F32343C351AAE70020BDE8F08F29
:100A8000F0B585B0044600680D4620F001002060F6
:100A900001A800F081F8D5E9011CD5E90323606ABB
:100AA0001A4320F01F0010436062DDF80CE04DF6A1
:100AB0008360C4F21B30AEFB000360689A0C4FF4F5
:100AC0009676724348F6381620F03F00C0F2410691
:100AD00040EA9340A2FB0626606048F2A062206ACA
:100AE000C0F20102571C20F03F00B94238BF9E0CF3
:100AF000731C1843914220620FD91920BCF1000FDA
:100B000008BF03204843BEFBF0F0010508BF0120E9
:100B100040EA0C0040F4004007E04800BEFBF0F063
:100B200040F6FC71084208BF0420E1694CF6FF72F0
:100B300091430843E06105F1140328680ECBA768D0
:100B400048F2FF36B74319433943A160216821F0C9
:100B50001A0108432060206840F0010020602068EE
:100B600020F4806040EA02010020216005B0F0BD61
:100B700044F6D351C1F26201A0FB01014FF0FF30F6
:100B800000EB91104EF21001CEF2000148600020FF
:100B9000886005200860704780B543F6040EC4F2F3
:100BA000020EDEF8042002F00C0342F20042082B91
:100BB000C0F2F40206D0042B22D147F64002C0F264
:100BC0007D121DE0DEF80030DEF800C05B0247F663
:100BD0004003C0F27D1358BF13460CF03F0CDEF803
:100BE0000020B3FBFCFCDEF80030C2F3881202FBED
:100BF0000CFCC3F30143022202EB4302BCFBF2F202
:100C00000260DEF8043041F27441C3F30313C0F60E
:100C10000001C95C41F2844322FA01F14160DEF82F
:100C20000420C0F60003C2F382229A5C21FA02F289
:100C30008260DEF80420C2F342329A5CD140C16087
:100C400080BD000040F20001C2F200010860704760
:100C500070B584B00446C068800463D4E0680D4673
:100C600049F20C618843D5E9011E05F10C0C9CE8A2
:100C700048100843AA69184330431043E0602069D4
:100C800020F4405040EA0E002061606920F440707A
:100C900040EA0C0060616846FFF77EFF44F20040C6
:100CA000C4F2000084420ED041F20040C4F20100C0
:100CB000844205D041F20000C4F20100844205D113
:100CC000039828B92EE0029810B92BE0002048B311
:100CD0002B683BB3A9694FF69C761922C0F6FF76C4
:100CE000B1F5004FA0FB02011FD15A00DB0FFFF747
:100CF000D7FA48F21F51C5F2EB11A0FB01235A09A4
:100D000006F1805302FB0300322303EBC000A0FB7B
:100D100001014FF4F87000EA111000EB0210C1F36A
:100D200042111BE0012004B070BD9A009B0FFFF739
:100D3000B7FA48F21F51C5F2EB11A0FB01235A0983
:100D400002FB0600322303EB0010A0FB0101F020A0
:100D500000EA511000EB0210C1F343114FF6F0729C
:100D600010400844A060002004B070BD81B04EF275
:100D70001001CEF200010A6801300092009A28BFEB
:100D80004FF0FF300A68D20300EBE2700028F9D17F
:100D900001B07047FEE70000FEE70000704700006A
:100DA0007047000070470000B0B543F60805C4F274
:100DB0000205D5F8F803022161F30200C5F8F80333
:100DC000D5F8F80300F007000228F9D147F2000037
:100DD000C4F200000168022262F38F31016055F80D
:100DE000081C102262F3C70145F8081C55F8081CBE
:100DF00041F0010145F8081C55F8081C8907FBD58E
:100E000055F8041C48F20002CFF6BF72114045F2BB
:100E10001042114345F8041C55F8041C012262F3EA
:100E2000114145F8041C55F8081C41F0807145F843
:100E3000081C00BF55F8081C8901FBD5416849040E
:100E4000FCD52868042120F0F0002860286861F3B0
:100E50008C2028602868022120F4604028602868DF
:100E600061F30100286000BF286800F00C0008282A
:100E7000FAD14BF60054C0F201542046FFF778FE39
:100E80002046FFF7DFFED5F8840020F08070C5F81B
:100E90008400B0BD4EF68850CEF20000016841F4E7
:100EA000700101607047000044F20040C4F200008D
:100EB0000168C90658BF704770B582B0016840F23A
:100EC0006A16019101994068C2F2000601900198EA
:100ED00046F28C00C4F2020000683188C0F58075CB
:100EE00040F26C10ACB2C2F200008C42084402D94D
:100EF000691A89B20AE0C1F5807189B2012200F055
:100F0000B7F840F26C10C2F200002146002200F057
:100F1000AFF8358002B0BDE870407047B0B583B01F
:100F200040F26C2CC2F2000C50B34CF6CD430021C1
:100F3000CCF6CC430DF1020EA0FB0324E40804EB35
:100F40008402A0EB420242F030054A1CC9B20EF8FE
:100F500001500A2811462046EED2100615D0D0B214
:100F60005EFA82F140424A1EACF10101002300BF4B
:100F7000D55C013B984201F8015FF9D1594205E087
:100F800030208CF80000012100E0002146F2A00092
:100F9000C9B240F60D22C4F202002CF8012002680A
:100FA00022F00102026000BF0268D207FCD1C0F843
:100FB0000CC042684FF6FF739A43114402314160FE
:100FC000016841F00101016044F21440C4F20000E4
:100FD00050E8001F41F0800140E80012002AF7D1DC
:100FE00003B0B0BD10B588B043F64000C4F20200B3
:100FF000016844F20C4441F4003101600068C4F21D
:10100000000400F400300190019800200490CDE924
:101010000600CDE902004FF4165001900C20059017
:10102000A4F10C0001A9FFF713FE606820F49040C2
:101030006060A06820F02A00A06000BF54E8000FA4
:1010400040F0100044E800010029F7D14EF226409C
:10105000CEF20000102101704EF20410CEF200001A
:1010600040210160206840F40050206008B010BDAD
:101070002DE9F0418EB040F2681840F26803C2F2E8
:101080000008C2F2000371B198F8006010F8015B2B
:101090000A2D08D00D2D06D0F4B2013601391D55A8
:1010A00088F80060F2D1002A40F0348198F80010EE
:1010B00000255D5441B11878A0F13A02D2B2F62A67
:1010C00004D20222012330E0012232E030384CF613
:1010D000CD4CC5B20126CCF6CC4C00BF3446B14253
:1010E0001CD0185DA0F13A06F6B2F62E18D3A0F186
:1010F0003006F0B2C043A0FB0C0705EB85004200B0
:10110000B5EBD70F284698BF52FA86F0661CB5EBB0
:10111000D70F0546E2D90322054602E0032200E08C
:10112000022200238C4238BF0123002B14BF00256C
:101130001A46DFE802F002860B44022D00F0B78069
:10114000012D40F0E480FFF7A7F9E0E08D4846F27A
:10115000A00600908BA0D0E90554071DD0F81CC054
:10116000008C8ECFCDE905546C460DF1040EADF820
:1011700020002046C4F202068EE88E00CDF81CC086
:10118000FFF706F9316821F0010131603168C907C4
:10119000FCD1F4607168C0EA01007060306840F012
:1011A0000100306044F21440C4F2000050E8001F17
:1011B00041F0800140E80012002AF7D1A7E063481F
:1011C00046F2A006009061A000F1140E071D9EE8F3
:1011D00020508ECF059500F12405046A01910292FA
:1011E00003932ECD808ECDE908416C46ADF83400D6
:1011F0002046C4F202060497CDE90A23CDE906CEC3
:101200000C95FFF7C5F8316821F00101316000BF8E
:101210003168C907FCD1F4607168C0EA01007060F0
:10122000306840F00100306044F21440C4F2000025
:1012300050E8001F41F0800140E80012002AF7D179
:1012400065E0594846F2A006009057A0D0E9055441
:10125000071D808B8ECF06946C460DF1040CADF803
:101260001C002046C4F202068CE88E000595FFF7AC
:101270008FF8316821F00101316000BF3168C90782
:10128000FCD1F4607168C0EA01007060306840F021
:101290000100306044F21440C4F2000050E8001F26
:1012A00041F0800140E80012002AF7D12FE045F21A
:1012B0000040C4F2000002684FF2C021CFF6FC717A
:1012C00042F4807202600A464369DB0702D10132B0
:1012D000FAD319E00269472363F3070202610A4661
:1012E00043699B0702D40132FAD30DE0026822F46D
:1012F00080620260026842F40062026082694269B0
:1013000052070AD40131FAD30020FFF707FE00206C
:1013100088F800000EB0BDE8F081016841F400716A
:101320000160016902690902D2B289B2114401EB7C
:10133000810145F2565203684900C1F25552A1FBA2
:10134000021223F40061016090B2DEE74572726F11
:10135000723A204163636570746564206E756D62D6
:1013600065722077686963682076616C75652065B1
:101370007863656564732075696E7433325F740DCC
:101380000A0000004572726F723A20416363657013
:10139000746564206E6F7420646967697420766177
:1013A0006C75650D0A0000004572726F723A20413B
:1013B0006363657074656420656D7074792076610F
:1013C0006C75650D0A000000FEE7000082B043F670
:1013D0004000C4F2020041684FF6FF0241F4804130
:1013E000416041684FF0FF3301F480410091009962
:1013F000016841F080510160006800F08050019068
:1014000001984EF60C50CEF200000168114040F2F7
:101410000032C0F2FA52114301600168C1F30221A7
:1014200081F00702042A28BF0422033903FA02F2DA
:1014300038BF0021D24302FA01F10901C175FFF75B
:10144000B3FCFFF791F9FFF759F9FFF7CBFDFFF771
:10145000D7F8FFF7BFF900BFFEE7F1EE100A4FF62D
:10146000FF71C0F2C03120EA010040F04070E1EEAF
:10147000100A704700000000000000000102030491
:101480000607080900000000010203041028405864
:101490007088A0B84248313735303A20524553451C
:1014A00054206661696C6564202869676E6F726597
:1014B00064290D0A004248313735303A20504F57E1
:1014C00045525F4F4E206661696C65640D0A0042AB
:1014D00048313735303A205354415254204D45411C
:1014E000535552454D454E54206661696C65640DF7
:1014F0000A00000018150008000000200800000085
:10150000F8010008201500080800002088080000E5
:1015100018020008000000000024F4000000000091
:040000050800019559
:00000001FF
