:020000040800F2
:100000006807002061020008450B00086D06000823
:10001000410B000859040008E10C00080000000032
:100020000000000000000000000000004D0B000870
:100030009505000800000000490B0008510B00085E
:100040007B0200087B0200087B0200087B0200089C
:100050007B0200087B0200087B0200087B0200088C
:100060007B0200087B0200087B0200087B0200087C
:100070007B0200087B0200087B0200087B0200086C
:100080007B0200085D0400087B02000800000000FD
:100090000000000000000000000000007B020008DB
:1000A0007B0200087B0200087B0200087B0200083C
:1000B0007B0200087B0200087B0200087B0200082C
:1000C0007B0200087B0200087B0200087B0200081C
:1000D0007B0200087B0200087B0200080000000091
:1000E0007B0200087B0200087B0200080000000081
:1000F0000000000000000000000000007B0200087B
:10010000000000007B0200087B0200087B02000860
:1001100000000000000000000000000000000000DF
:100120007B0200087B0200087B0200087B020008BB
:100130007B0200080000000000000000000000003A
:100140000000000000000000000000007B0200082A
:100150007B0200087B0200087B0200087B0200088B
:100160007B0200087B020008000000000000000085
:10017000000000000000000000000000000000007F
:10018000000000007B0200080000000000000000EA
:100190007B02000800F002F800F052F814A696E87E
:1001A000000CB244B344DA4501D100F049F8BAE892
:1001B0000F000FA696E83000A5EB040504EB060738
:1001C000AAEB0704A7F101074FEA15154FEA34140B
:1001D000A4F10104AC4201D300F032F813F0010F96
:1001E00018BFFB1A43F0010300F001F8DBE71847E2
:1001F000BC0B0000DC0B0000103A24BF78C878C1AB
:10020000FAD8520724BF30C830C144BF04680C601C
:1002100070470000704700000023002400250026DE
:10022000103A28BF78C1FBD8520728BF30C148BF59
:100230000B6070471FB500F09CFD1FBD10B510BDD1
:1002400000F0D0F81146FFF7F5FF00F04BFD00F08D
:10025000EEF803B4FFF7F2FF03BC00F0F5F800007E
:100260000948804709480047FEE7FEE7FEE7FEE74A
:10027000FEE7FEE7FEE7FEE7FEE7FEE70448054986
:10028000054A064B70470000410C00089501000824
:100290006801002068070020680300206803002030
:1002A00053EA020C00F069802DE9F04B4FF0000694
:1002B000002B1FBFB3FA83F503FA05F424FA05F601
:1002C0005E4012BF1643B2FA82F502FA05F4C5F198
:1002D00020051EBF22FA05FC44EA0C04203556EA2C
:1002E000044C4FEA144418BF641C4FF000084FF050
:1002F0000009904271EB030C39D3002919BFB1FA00
:1003000081F701FA07F6B0FA80F700FA07F6C7F1AD
:1003100020071EBF20FA07FC46EA0C062037B6FB72
:10032000F4FCA7EB0507103F07F01F0BCBF12006ED
:100330002CFA06F60CFA0BFB44BFB3460026202F1E
:10034000A4BF5E464FF0000B5BEA060C08BF4FF0FF
:10035000010B19EB0B0948EB0608ABFB027C06FB13
:1003600002CC0BFB03CCC01B71EB0C01C1E70B46AD
:10037000024641464846BDE8F08B13B5084318BF16
:100380004FF0FF300146AFF30080BDE81C407047DE
:100390004FF0000200B5134694469646203922BF1E
:1003A000A0E80C50A0E80C50B1F12001BFF4F7AF69
:1003B000090728BFA0E80C5048BF0CC05DF804EB4B
:1003C000890028BF40F8042B08BF704748BF20F8B9
:1003D000022B11F0804F18BF00F8012B70477047B7
:1003E00070477047754600F02BF8AE460500694629
:1003F000534620F00700854618B020B5FFF73EFFB2
:10040000BDE820404FF000064FF000074FF0000815
:100410004FF0000BAC46ACE8C009ACE8C009ACE852
:10042000C009ACE8C00921F007018D46704710B53E
:100430000446AFF300802046BDE81040FFF709BF37
:10044000004870470800002001491820ABBEFEE7B5
:100450002600020070470000FEE7000046F2A00000
:10046000C4F2020050F89C1C890258BF70474FF438
:10047000001140F8941C016821F00101016044F270
:100480001440C4F2000000BF50E8001F21F08001BA
:1004900040E80012002AF7D1704700002DE9F0472C
:1004A00090B043F63000C4F20200016801AC41F4A0
:1004B0000011016000683C2100F4001001900198D7
:1004C0002046FFF765FF46F20005402044F204484D
:1004D000C4F202054FF00069039000264FF4806AD1
:1004E000C4F20008284606212246CDF82890089636
:1004F000CDF818A00496CDF80480079605960B96C3
:1005000000F0F8F8D5F8A0004FF4003740F01000E4
:10051000C5F8A0004EF20010CEF2000007602046A1
:100520003C21FFF735FF40F26800C2F20000029064
:100530004FF480700990CDE9040628460521224633
:10054000CDF8289003960896CDF818A0CDF8048031
:1005500007960B9700F0CEF8D5F8880040F0010020
:10056000C5F8880044F21440C4F2000050E8001FAF
:1005700041F0400140E80012002AF7D150E8001F86
:1005800041F0800140E80012002AF7D110B0BDE828
:10059000F0870000704700002DE9F04387B043F674
:1005A0003000C4F20200016840F2004441F0020150
:1005B00001600068C4F2020400F00200019001989A
:1005C000402001AD4FF000084FF00409022601273A
:1005D000019020462946CDF81480CDF81890029657
:1005E0000497039600F0CEF804A8029680E88003F2
:1005F0008020019020462946039600F0C3F807B0FA
:10060000BDE8F0832DE9F04186B043F63000C4F236
:1006100002000168002441F0010101600068C4F299
:10062000020400F001000090009804206D460026AE
:100630004FF007080227009020462946CDE90366BF
:10064000CDF814800197029700F09CF808200090E4
:1006500001200490204629460396CDF81480019786
:10066000029700F08FF806B0BDE8F081FEE70000C9
:1006700010B588B043F64000C4F20200016845F2AC
:10068000004441F4001101600068C4F2000400F469
:100690000010009000982068694620F0010020605A
:1006A000206840F400402060206820F40040206072
:1006B00000200090CDE90400CDE9020048F2A060DE
:1006C000C0F2010001904FF4804007904FF4806029
:1006D0000690204600F0BEF8606A20F010006062CC
:1006E000606A20F00F006062206840F00100206026
:1006F00008B010BD70B5D2E902C3D2E904E443EA00
:100700000C03D2E9065643EA0E0323432B4340F67B
:10071000A455C0F600053343966A695C33430E580E
:1007200048F21F05CFF6FC752E4033430B50D36AB9
:10073000014493B14869D2E90C6520F007003043C9
:100740001843946B4861086820F0C0702843086023
:10075000086820F4C00020430860D2E90003D2E911
:100760000826CB60886048684FF6FF7398431043B3
:100770004860086820F0606040EA060200200A60D5
:1007800070BD00002DE9F04F0C6894FAA4F2B2FAA3
:1007900082F234FA02F35AD04FF001084FF0030C02
:1007A0000DE000BF4B6807686FEA09063740AB40B1
:1007B0003B4303600C68013234FA02F347D008FA75
:1007C00002F31C40F6D0D1F804E0AEF10103012B96
:1007D00094FAA4F314D8B3FA83F7D0F808907F0002
:1007E000D1E9025B0CFA07FA29EA0A09BD4045EA99
:1007F0000905856045680BFB04F7A5433D4345604B
:10080000B3FA83F30E69C7685D000CFA05F927EAAD
:100810000907AE403E43BEF1020FC660C2D1E7B247
:10082000260A96FAA6F6002F08BFB6FA86F34FF00E
:10083000200708BF2427D1F814E0C4599B000F26D5
:100840009E40B4430EFA03F32343C351AAE70020AA
:10085000BDE8F08FF0B585B0044600680D4620F085
:100860000100206001A800F081F8D5E9011CD5E95C
:100870000323606A1A4320F01F0010436062DDF812
:100880000CE04DF68360C4F21B30AEFB00036068E1
:100890009A0C4FF49676724348F6381620F03F00D3
:1008A000C0F2410640EA9340A2FB0626606048F28F
:1008B000A062206AC0F20102571C20F03F00B9423A
:1008C00038BF9E0C731C1843914220620FD9192027
:1008D000BCF1000F08BF03204843BEFBF0F0010548
:1008E00008BF012040EA0C0040F4004007E0480047
:1008F000BEFBF0F040F6FC71084208BF0420E1693D
:100900004CF6FF7291430843E06105F11403286837
:100910000ECBA76848F2FF36B74319433943A160AD
:10092000216821F01A0108432060206840F001008E
:100930002060206820F4806040EA020100202160ED
:1009400005B0F0BD44F6D351C1F26201A0FB010134
:100950004FF0FF3000EB91104EF21001CEF200018B
:1009600048600020886005200860704780B543F625
:10097000040EC4F2020EDEF8042002F00C0342F270
:100980000042082BC0F2F40206D0042B22D147F615
:100990004002C0F27D121DE0DEF80030DEF800C03B
:1009A0005B0247F64003C0F27D1358BF13460CF0BC
:1009B0003F0CDEF80020B3FBFCFCDEF80030C2F395
:1009C000881202FB0CFCC3F30143022202EB430238
:1009D000BCFBF2F20260DEF8043040F68C51C3F347
:1009E0000313C0F60001C95C40F69C5322FA01F1E2
:1009F0004160DEF80420C0F60003C2F382229A5C54
:100A000021FA02F28260DEF80420C2F342329A5CDC
:100A1000D140C16080BD000040F20001C2F200017F
:100A20000860704770B584B00446C068800463D421
:100A3000E0680D4649F20C618843D5E9011E05F1D5
:100A40000C0C9CE848100843AA6918433043104333
:100A5000E060206920F4405040EA0E0020616069A7
:100A600020F4407040EA0C0060616846FFF77EFFAA
:100A700044F20040C4F2000084420ED041F2004033
:100A8000C4F20100844205D041F20000C4F201002A
:100A9000844205D1039828B92EE0029810B92BE0C2
:100AA000002048B32B683BB3A9694FF69C76192206
:100AB000C0F6FF76B1F5004FA0FB02011FD15A002E
:100AC000DB0FFFF7EDFB48F21F51C5F2EB11A0FB66
:100AD00001235A0906F1805302FB0300322303EB82
:100AE000C000A0FB01014FF4F87000EA111000EB08
:100AF0000210C1F342111BE0012004B070BD9A0046
:100B00009B0FFFF7CDFB48F21F51C5F2EB11A0FB85
:100B100001235A0902FB0600322303EB0010A0FB5D
:100B20000101F02000EA511000EB0210C1F3431163
:100B30004FF6F07210400844A060002004B070BD71
:100B4000FEE70000FEE7000070470000704700006D
:100B500070470000B0B543F60805C4F20205D5F8A9
:100B6000F803022161F30200C5F8F803D5F8F80391
:100B700000F007000228F9D147F20000C4F200009B
:100B80000168022262F38F31016055F8081C1022BF
:100B900062F3C70145F8081C55F8081C41F0010133
:100BA00045F8081C55F8081C8907FBD555F8041CA6
:100BB00048F20002CFF6BF72114045F210421143D5
:100BC00045F8041C55F8041C012262F3114145F854
:100BD000041C55F8081C41F0807145F8081C00BF42
:100BE00055F8081C8901FBD541684904FCD52868E3
:100BF000042120F0F0002860286861F38C20286030
:100C00002868022120F460402860286861F3010010
:100C1000286000BF286800F00C000828FAD14BF6C5
:100C20000054C0F201542046FFF78CFE2046FFF727
:100C3000F3FED5F8840020F08070C5F88400B0BDC4
:100C40004EF68850CEF20000016841F47001016058
:100C50007047000010B588B043F64000C4F20200AF
:100C6000016844F20C4441F4003101600068C4F2B0
:100C7000000400F400300190019800200490CDE9B8
:100C80000600CDE902004FF4165001900C200590AB
:100C9000A4F10C0001A9FFF7C5FE606820F49040A4
:100CA0006060A06820F02A00A06000BF54E8000F38
:100CB00040F0100044E800010029F7D14EF2264030
:100CC000CEF20000102101704EF20410CEF20000AE
:100CD00040210160206840F40050206008B010BD41
:100CE000FEE7000082B043F64000C4F20200416813
:100CF0004FF6FF0241F48041416041684FF0FF33FD
:100D000001F4804100910099016841F08051016037
:100D1000006800F08050019001984EF60C50CEF221
:100D200000000168114040F20032C0F2FA52114353
:100D300001600168C1F3022181F00702042A28BF83
:100D40000422033903FA02F238BF0021D24302FA27
:100D500001F10901C175FFF7FDFEFFF753FCFFF735
:100D60001BFCFFF777FFFFF799FBFFF781FC00BF44
:100D7000FEE7F1EE100A4FF6FF71C0F2C03120EA33
:100D8000010040F04070E1EE100A704700000000E2
:100D9000000000000102030406070809000000002B
:100DA00001020304102840587088A0B8D00D000834
:100DB0000000002008000000F8010008D80D00081D
:100DC0000800002060070000180200080000000072
:080DD0000024F4000000000003
:040000050800019559
:00000001FF
