:020000040800F2
:10000000700600206102000811060008C503000800
:100010000D0600081D030008690600080000000026
:1000200000000000000000000000000019060008A9
:100030002103000800000000150600081D06000846
:100040007B0200087B0200087B0200087B0200089C
:100050007B0200087B020008250300087B020008E1
:100060007B0200087B0200087B0200087B0200087C
:100070007B0200087B0200087B0200087B0200086C
:100080007B0200087B0200087B02000800000000E1
:100090000000000000000000000000007B020008DB
:1000A0007B0200087B0200087B0200087B0200083C
:1000B0007B0200087B0200087B0200087B0200082C
:1000C0007B0200087B0200087B0200087B0200081C
:1000D0007B0200087B0200087B0200080000000091
:1000E0007B0200087B0200087B0200080000000081
:1000F0000000000000000000000000007B0200087B
:10010000000000007B0200087B0200087B02000860
:1001100000000000000000000000000000000000DF
:100120007B0200087B0200087B0200087B020008BB
:100130007B0200080000000000000000000000003A
:100140000000000000000000000000007B0200082A
:100150007B0200087B0200087B0200087B0200088B
:100160007B0200087B020008000000000000000085
:10017000000000000000000000000000000000007F
:10018000000000007B0200080000000000000000EA
:100190007B02000800F002F800F052F814A696E87E
:1001A000000CB244B344DA4501D100F049F8BAE892
:1001B0000F000FA696E83000A5EB040504EB060738
:1001C000AAEB0704A7F101074FEA15154FEA34140B
:1001D000A4F10104AC4201D300F032F813F0010F96
:1001E00018BFFB1A43F0010300F001F8DBE71847E2
:1001F00090060000B0060000103A24BF78C878C10D
:10020000FAD8520724BF30C830C144BF04680C601C
:1002100070470000704700000023002400250026DE
:10022000103A28BF78C1FBD8520728BF30C148BF59
:100230000B6070471FB500F016FB1FBD10B510BD59
:1002400000F031F81146FFF7F5FF00F05BFA00F01F
:100250004FF803B4FFF7F2FF03BC00F057F80000BB
:100260000948804709480047FEE7FEE7FEE7FEE74A
:10027000FEE7FEE7FEE7FEE7FEE7FEE70448054986
:10028000054A064B70470000550600089501000816
:100290007000002070060020700200207002002014
:1002A000704770477047754600F02CF8AE46050061
:1002B0006946534620F00700854618B020B5FFF781
:1002C000DDFFBDE820404FF000064FF000074FF083
:1002D00000084FF0000BAC46ACE8C009ACE8C00920
:1002E000ACE8C009ACE8C00921F007018D467047B1
:1002F00010B50446AFF300802046BDE81040FFF77C
:10030000A8BF0000004870470800002001491820DD
:10031000ABBEFEE72600020070470000FEE70000CB
:100320007047000043F61440C4F20100012101604F
:1003300040F26800C2F200004170704780B586B09C
:1003400043F63000C4F20200016841F0010101608F
:100350000068694600F001000090009800200590B8
:100360000390CDE901000120009004900020C4F228
:10037000020000F0BFF806B080BD0000B0B586B046
:1003800043F63000C4F20200016840F6000441F078
:10039000040101600068012100F004000090009851
:1003A0000020C4F202040590019103904FF400551F
:1003B0000490029069462046009500F09BF8A561E4
:1003C00006B0B0BDFEE7000080B584B043F644003F
:1003D000C4F20200016841F480410160006800F449
:1003E0008040039003980120C0F202000190012098
:1003F0000090684600F016F843F60040C4F2010091
:10040000016841F0010101604EF20640CEF20000A9
:10041000002101704EF20010CEF200004021016078
:1004200004B080BD80B5027901689AB1E9B1437921
:1004300043F6004C022BC4F2010C1DD0012B17D047
:10044000002B3FD1DCF8042063468A43CCF804201B
:1004500018E000BF43F60040C4F2010002688A437E
:100460000260426822EA01014160002080BD00BFB5
:10047000DCF800208A4302E0DCF800200A436346EF
:1004800043F8042B1A684FF0000E0A431A60827971
:10049000032A1CD80FF20A0000EB82037046DFE843
:1004A00002F00305191D00BFE0E700BFDCF80C20D7
:1004B0008A43CCF80C20DCF808201143CCF8081053
:1004C00080BD00BF4FF0010E8279032AE2D90120DE
:1004D00080BD00BFDCF808208A4302E0DCF8082079
:1004E0000A43CCF80820DCF80C201143CCF80C109F
:1004F00080BD00002DE9F04F0E6896FAA6F2B2FA20
:1005000082F236FA02F363D04FF001084FF0030C89
:100510000CE000BFD1E900630768AB4007EA0A07B7
:100520003B430360013236FA02F351D008FA02F37A
:1005300016EA0304F6D0D1F804E0AEF10103022B71
:1005400094FAA4F31AD2B3FA83F6D0F8089075009F
:10055000D1E902AB0CFA05F329EA03090AFA05F717
:1005600047EA0907876047686FEA030A27EA040930
:100570000BFB04F747EA0907476006E0B3FA83F686
:1005800075000CFA05F36FEA030A0F69C368AF4000
:1005900003EA0A033B43BEF1020FC360BAD1E3B2E0
:1005A000240AD1F814E094FAA4F4002B08BFB4FA9A
:1005B00084F64FF0200308BF2423C458B6000F2749
:1005C000B740BC430EFA06F72743C750A2E700BF67
:1005D0000020BDE8F08F000044F6D351C1F2620163
:1005E000A0FB01014FF0FF3000EB91104EF2100123
:1005F000CEF2000148600020886005200860704746
:1006000040F20001C2F2000108607047FEE70000FE
:10061000FEE70000704700007047000000F026B8B9
:1006200040F20000C2F20000006844F6D351C1F26B
:100630006201A0FB01014FF0FF3000EB91104EF280
:100640001001CEF200014860002088600720086099
:10065000704700004EF68850CEF20000016841F469
:100660007001016070470000FEE7000040F2680082
:10067000C2F200000178022922D001290ED059B916
:10068000427840F20401C2F200016423012A0B7097
:1006900002BF012101807047704700BF40F2040192
:1006A000C2F200010A78013A13060A70F4D14278C6
:1006B000012A15D164220A7000214170704700BFE1
:1006C0001021C4F202010968C90708BF7047002160
:1006D000018040F20400C2F2000064210170704702
:1006E00040F61402C4F20202136803F4005343EA12
:1006F000034383F4005353600222027064200870A5
:100700007047000082B043F60805C4F20205E86BAA
:100710004FF6FF0240F48040E863E86B4FF0FF3390
:1007200000F4804000900098A86B40F08050A863CF
:10073000A86B00F08050019001984EF60C50CEF25C
:1007400000000168114040F20032C0F2FA52114339
:1007500001600168C1F3022181F00702042A28BF69
:100760000422033903FA02F238BF0021D24302FA0D
:1007700001F10901C175D5F8F80320F00700C5F8AB
:10078000F803D5F8F80340070CD0D5F8F803400774
:100790001CBFD5F8F8035FEA407003D0D5F8F80322
:1007A0004007EED147F20000C4F2000001680222C7
:1007B00062F38F31016055F8080C102161F3C70016
:1007C00045F8080C55F8080C40F0010045F8080CF5
:1007D00055F8080C80070CD455F8080C80075CBF4E
:1007E00055F8080C5FEA807003D455F8080C8007B0
:1007F000EED5286820F0F0002860286820F4E0504A
:100800002860286820F460402860286820F00300F1
:10081000286000BF286810F00C0F0BD0286810F07B
:100820000C0F07D0286810F00C0F03D0286810F0C8
:100830000C0FEFD142F20044C0F2F4042046FFF75F
:10084000CBFE2046FFF7DCFED5F8840020F0807058
:10085000C5F88400FFF792FDFFF770FDFFF7B4FDC8
:10086000FFF7DEFEFEE7F1EE100A4FF6FF71C0F271
:10087000C03120EA010040F04070E1EE100A7047FC
:10088000A00800080000002008000000F80100088F
:10089000A8080008080000206806000018020008E8
:0808A0000024F40064000000D4
:040000050800019559
:00000001FF
